:10000000705500208D7800001125010061780000F6
:10001000617800006178000061780000617800007C
:1000200000000000000000000000000099750000C2
:100030006178000000000000057500006178000094
:100040003D7600003D7600003D7600003D760000E4
:100050003D7600003D7600003D7600003D760000D4
:100060003D7600003D7600003D7600003D760000C4
:100070003D7600003D7600003D7600003D760000B4
:100080003D7600003D7600003D7600003D760000A4
:100090003D7600003D7600003D7600003D76000094
:1000A0003D7600003D7600003D7600003D76000084
:1000B0003D7600003D7600003D7600003D76000074
:1000C0003D7600003D7600003D7600003D76000064
:1000D0003D7600003D7600003D7600003D76000054
:1000E0003D7600003D7600003D7600003D76000044
:1000F0003D7600003D7600003D7600003D76000034
:100100003D7600003D7600003D7600003D76000023
:100110003D7600003D7600003D7600003D76000013
:100120003D7600003D7600003D7600003D76000003
:100130003D7600003D7600003D7600003D760000F3
:100140003D7600003D7600003D7600003D760000E3
:040150003D760000F8
:04015400FFFFFFFFAB
:1001580081F0004102E000BF83F0004330B54FEA70
:1001680041044FEA430594EA050F08BF90EA020FDD
:100178001FBF54EA000C55EA020C7FEA645C7FEA70
:10018800655C00F0E2804FEA5454D4EB5555B8BF93
:100198006D420CDD2C4480EA020281EA030382EA04
:1001A800000083EA010180EA020281EA0303362D96
:1001B80088BF30BD11F0004F4FEA01314FF4801C69
:1001C8004CEA113102D0404261EB410113F0004F7B
:1001D8004FEA03334CEA133302D0524263EB430332
:1001E80094EA050F00F0A780A4F10104D5F1200ED0
:1001F8000DDB02FA0EFC22FA05F2801841F100012B
:1002080003FA0EF2801843FA05F359410EE0A5F1FE
:1002180020050EF1200E012A03FA0EFC28BF4CF02F
:10022800020C43FA05F3C01851EBE37101F00045E5
:1002380007D54FF0000EDCF1000C7EEB00006EEBF2
:100248000101B1F5801F1BD3B1F5001F0CD349087C
:100258005FEA30004FEA3C0C04F101044FEA4452D3
:1002680012F5800F80F09A80BCF1004F08BF5FEA5A
:10027800500C50F1000041EB045141EA050130BD3A
:100288005FEA4C0C404141EB0101013C28BFB1F54C
:10029800801FE9D291F0000F04BF01460020B1FA97
:1002A80081F308BF2033A3F10B03B3F120020CDA6A
:1002B8000C3208DD02F1140CC2F10C0201FA0CF048
:1002C80021FA02F10CE002F11402D8BFC2F1200CAD
:1002D80001FA02F120FA0CFCDCBF41EA0C01904063
:1002E800E41AA2BF01EB0451294330BD6FEA0404AC
:1002F8001F3C1CDA0C340EDC04F11404C4F1200297
:1003080020FA04F001FA02F340EA030021FA04F3A8
:1003180045EA030130BDC4F10C04C4F1200220FAFF
:1003280002F001FA04F340EA0300294630BD21FA3D
:1003380004F0294630BD94F0000F83F4801306BF03
:1003480081F480110134013D4EE77FEA645C18BFF7
:100358007FEA655C29D094EA050F08BF90EA020F8E
:1003680005D054EA000C04BF1946104630BD91EA86
:10037800030F1EBF0021002030BD5FEA545C05D189
:100388004000494128BF41F0004130BD14F58004C8
:100398003CBF01F5801130BD01F0004545F0FE413C
:1003A80041F470014FF0000030BD7FEA645C1ABF71
:1003B800194610467FEA655C1CBF0B46024650EAA8
:1003C800013406BF52EA033591EA030F41F40021D4
:1003D80030BD00BF90F0000F04BF0021704730B55A
:1003E8004FF4806404F132044FF000054FF000012F
:1003F80050E700BF90F0000F04BF0021704730B5F0
:100408004FF4806404F1320410F0004548BF4042C4
:100418004FF000013EE700BF42004FEAE2014FEA19
:1004280031014FEA02701FBF12F07F4393F07F4FF4
:1004380081F06051704732F07F4208BF704793F0F7
:100448007F4F04BF41F40021704730B54FF460740A
:1004580001F0004521F000411CE700BF50EA01020D
:1004680008BF704730B54FF000050AE050EA0102B6
:1004780008BF704730B511F0004502D5404261EB26
:1004880041014FF4806404F132045FEA915C3FF467
:10049800D8AE4FF003025FEADC0C18BF03325FEA04
:1004A800DC0C18BF033202EBDC02C2F1200300FAB5
:1004B80003FC20FA02F001FA03FE40EA0E0021FADA
:1004C80002F11444BDE600BF70B54FF0FF0C4CF4C8
:1004D800E06C1CEA11541DBF1CEA135594EA0C0F7A
:1004E80095EA0C0F00F0DEF82C4481EA030621EAB5
:1004F8004C5123EA4C5350EA013518BF52EA0335F0
:1005080041F4801143F4801338D0A0FB02CE4FF0A1
:100518000005E1FB02E506F00042E0FB03E54FF0D1
:100528000006E1FB03569CF0000F18BF4EF0010EC9
:10053800A4F1FF04B6F5007F64F5407404D25FEAC5
:100548004E0E6D4146EB060642EAC62141EA555178
:100558004FEAC52040EA5E504FEACE2EB4F1FD0CBA
:1005680088BFBCF5E06F1ED8BEF1004F08BF5FEA38
:10057800500E50F1000041EB045170BD06F00046EA
:1005880046EA010140EA020081EA0301B4EB5C0497
:10059800C2BFD4EB0C0541EA045170BD41F480118F
:1005A8004FF0000E013C00F3AB8014F1360FDEBFB4
:1005B800002001F0004170BDC4F10004203C35DA90
:1005C8000C341BDC04F11404C4F1200500FA05F313
:1005D80020FA04F001FA05F240EA020001F00042B4
:1005E80021F0004110EBD37021FA04F642EB06012A
:1005F8005EEA430E08BF20EAD37070BDC4F10C0454
:10060800C4F1200500FA04F320FA05F001FA04F217
:1006180040EA020001F0004110EBD37041F1000103
:100628005EEA430E08BF20EAD37070BDC4F120050E
:1006380000FA05F24EEA020E20FA04F301FA05F276
:1006480043EA020321FA04F001F0004121FA04F21E
:1006580020EA020000EBD3705EEA430E08BF20EAEE
:10066800D37070BD94F0000F0FD101F00046400028
:1006780041EB010111F4801F08BF013CF7D041EAAA
:10068800060195F0000F18BF704703F000465200AE
:1006980043EB030313F4801F08BF013DF7D043EA7F
:1006A8000603704794EA0C0F0CEA135518BF95EA35
:1006B8000C0F0CD050EA410618BF52EA4306D1D1BC
:1006C80081EA030101F000414FF0000070BD50EADB
:1006D800410606BF1046194652EA430619D094EA65
:1006E8000C0F02D150EA013613D195EA0C0F05D14F
:1006F80052EA03361CBF104619460AD181EA0301A3
:1007080001F0004141F0FE4141F470014FF000005A
:1007180070BD41F0FE4141F4780170BD70B54FF0F5
:10072800FF0C4CF4E06C1CEA11541DBF1CEA135575
:1007380094EA0C0F95EA0C0F00F0A7F8A4EB050457
:1007480081EA030E52EA03354FEA013100F088804E
:100758004FEA03334FF0805545EA131343EA126317
:100768004FEA022245EA111545EA10654FEA0026CC
:100778000EF000419D4208BF964244F1FD0404F585
:10078800407402D25B084FEA3202B61A65EB0305E1
:100798005B084FEA32024FF480104FF4002CB6EB9E
:1007A800020E75EB030E22BFB61A754640EA0C001E
:1007B8005B084FEA3202B6EB020E75EB030E22BF5E
:1007C800B61A754640EA5C005B084FEA3202B6EB9F
:1007D800020E75EB030E22BFB61A754640EA9C005E
:1007E8005B084FEA3202B6EB020E75EB030E22BF2E
:1007F800B61A754640EADC0055EA060E18D04FEAEC
:10080800051545EA16754FEA06164FEAC30343EA8B
:1008180052734FEAC2025FEA1C1CC0D111F4801F58
:100828000BD141EA00014FF000004FF0004CB6E751
:1008380011F4801F04BF01430020B4F1FD0C88BFF0
:10084800BCF5E06F3FF6AFAEB5EB030C04BFB6EBFB
:10085800020C5FEA500C50F1000041EB045170BDEE
:100868000EF0004E4EEA113114EB5C04C2BFD4EB1B
:100878000C0541EA045170BD41F480114FF0000E9F
:10088800013C90E645EA060E8DE60CEA135594EA1B
:100898000C0F08BF95EA0C0F3FF43BAF94EA0C0F1E
:1008A8000AD150EA01347FF434AF95EA0C0F7FF493
:1008B80025AF104619462CE795EA0C0F06D152EAE7
:1008C80003353FF4FDAE1046194622E750EA4106CB
:1008D80018BF52EA43067FF4C5AE50EA41047FF4DC
:1008E8000DAF52EA43057FF4EBAE12E74FF0FF3C41
:1008F80006E000BF4FF0010C02E000BF4FF0010C12
:100908004DF804CD4FEA410C7FEA6C5C4FEA430C8A
:1009180018BF7FEA6C5C1BD001B050EA410C0CBFD9
:1009280052EA430C91EA030F02BF90EA020F00203B
:10093800704710F1000F91EA030F58BF994208BFA2
:1009480090422CBFD8176FEAE37040F0010070475F
:100958004FEA410C7FEA6C5C02D150EA013C07D1B6
:100968004FEA430C7FEA6C5CD6D152EA033CD3D001
:100978005DF8040B704700BF8446104662468C46FB
:100988001946634600E000BF01B5FFF7B7FF00282E
:1009980048BF10F1000F01BD4DF808EDFFF7F4FF57
:1009A8000CBF012000205DF808FB00BF4DF808EDE2
:1009B800FFF7EAFF34BF012000205DF808FB00BF05
:1009C8004DF808EDFFF7E0FF94BF012000205DF827
:1009D80008FB00BF4DF808EDFFF7CEFF94BF0120DC
:1009E80000205DF808FB00BF4DF808EDFFF7C4FFD5
:1009F80034BF012000205DF808FB00BF4FEA410228
:100A0800B2F1E04324BFB3F5001CDCF1FE5C0DD964
:100A180001F0004C4FEAC0024CEA5070B2F1004FAE
:100A280040EB830008BF20F00100704711F0804FB1
:100A380021D113F13872BCBF01F00040704741F476
:100A480080114FEA5252C2F11802C2F1200C10FA7A
:100A58000CF320FA02F018BF40F001004FEAC1235E
:100A68004FEAD32303FA0CFC40EA0C0023FA02F302
:100A78004FEA4303CCE77FEA625307D150EA0133D8
:100A88001EBF4FF0FE4040F44000704701F00040A8
:100A980040F0FE4040F40000704700BF7BB972B9D7
:100AA8000029BEBF00204FF0004106E008BF002823
:100AB8001CBF6FF000414FF0FF3000F075B8ADF18A
:100AC800080C6DE904CE002909DB002B1ADB00F0C5
:100AD800E2F8DDF804E0DDE9022304B070474042A3
:100AE80061EB4101002B1BDB00F0D5F8DDF804E0D9
:100AF800DDE9022304B0404261EB4101524263EB5D
:100B080043037047524263EB430300F0C4F8DDF837
:100B180004E0DDE9022304B0404261EB4101704783
:100B2800524263EB430300F0B6F8DDF804E0DDE978
:100B3800022304B0524263EB4303704753B94AB9E6
:100B4800002908BF00281CBF4FF0FF314FF0FF30CD
:100B580000F02AB8ADF1080C6DE904CE00F09BF85E
:100B6800DDF804E0DDE9022304B07047D0B50022C7
:100B78000B4B06460F46FFF7A7FC00F017F8044694
:100B8800FFF728FC0022074BFFF79EFC02460B46A6
:100B980030463946FFF7E0FA00F008F82146D0BDA4
:100BA8000000F03D0000F041704700BF4A0011D23C
:100BB80012F5001211D20DD56FF47873B3EB6252AF
:100BC8000ED44FEAC12343F0004343EA505323FABB
:100BD80002F070474FF00000704750EA013002D130
:100BE8004FF0FF3070474FF0000070474FEA410C5C
:100BF8007FEA6C5C02D150EA013C0AD14FEA430C0F
:100C08007FEA6C5C02D152EA033C02D14FF000004B
:100C180070474FF0010070474FEA410212F5001289
:100C280015D211D56FF47873B3EB625212D94FEA2B
:100C3800C12343F0004343EA505311F0004F23FA15
:100C480002F018BF404270474FF00000704750EA6A
:100C5800013005D111F0004008BF6FF00040704727
:100C68004FF00000704700BF38B50022002304464B
:100C78000D46FFF79BFE28B920462946BDE83840B7
:100C8800FFF774BF204605F10041FFF76FFF4042B0
:100C980061EB410138BD2DE9F04F099E88468E462B
:100CA800154604461946002B40F0C6804245B2FA64
:100CB80082F746D94FB1C7F1200C08FA07F3BD40B7
:100CC800BC4020FA0CFC4CEA030E4FEA15481FFA08
:100CD80085FC220CBEFBF8F908FB19E309FB0CFAAA
:100CE80042EA03439A4528D9EB1809F1FF3004D2A8
:100CF8009A4502D9A9F102002B44A3EB0A03A4B236
:100D0800B3FBF8F208FB123302FB0CFC44EA034481
:100D1800A44514D92C1902F1FF3303D2A44501D9F3
:100D2800931E2C44A4EB0C0443EA00401EB1FC4083
:100D3800002334607360BDE8F08F4846DDE7134652
:100D4800F0E702B9FFDE8FBBA8EB020301214FEAEF
:100D5800154EAAB2200CB3FBFEFC0EFB1C330CFB99
:100D680002F840EA0343984562D9EB180CF1FF30CA
:100D780004D2984502D9ACF102002B44A3EB080336
:100D8800A4B2B3FBFEFC0EFB1C330CFB02F244EADC
:100D98000344A2424ED92C190CF1FF3304D2A242CB
:100DA80002D9ACF102032C44A41ABDE7C7F1200C08
:100DB800BD4008FA07F3BC4028FA0CF94FEA154E73
:100DC80020FA0CFC4CEA0302ABB2B9FBFEFC110C96
:100DD8000EFB1C900CFB03F841EA0040804523D928
:100DE80028180CF1FF3104D2804502D9ACF1020178
:100DF8002844A0EB080092B2B0FBFEFC0EFB1C00DE
:100E08000CFB03F842EA004398450FD9EB180CF1A4
:100E1800FF3204D2984502D9ACF102022B44A3EB6D
:100E2800080342EA014192E76146E2E76246F6E7D3
:100E38006046A3E76346B7E7434505D90EB1C6E95F
:100E480000080021084676E7B3FA83FCBCF1000FDE
:100E580010D1434501D382420AD8841A68EB0303B0
:100E680001209E46002E68D0C6E9004E002162E7A8
:100E78006046F7E7CCF1200E03FA0CF302FA0CF502
:100E880000FA0CF722FA0EF428FA0EFB20FA0EF1FB
:100E98001C4308FA0CF34FEA14491943A3B20A0C8D
:100EA800BBFBF9F809FB18BB08FB03FA42EA0B4243
:100EB80092453ED9A21808F1FF3004D2924502D9D2
:100EC800A8F102002244A2EB0A0289B2B2FBF9F8A7
:100ED80009FB182208FB03F341EA024293422AD98C
:100EE800A21808F1FF3104D2934202D9A8F10201F5
:100EF800224441EA0040D21AA0FB059842454B46DD
:100F0800414602D306D14F4504D20138B9EB050357
:100F180068EB04018EB1FC1A62EB010707FA0EFEBA
:100F280024FA0CF327FA0CF74EEA0303C6E9003754
:100F38009CE74046C7E74146DBE73146FBE610F849
:100F4800012B11F8013B012A28BF9A42F7D0D01A89
:100F58007047034613F8012B002AFBD1181A0138F1
:100F680070470000000000002DE9F04F2DED028BC6
:100F780081468A4615461C4600269FEDA98B9BB0E4
:100F8800287810B9304600F0C9BD6B1C252802939B
:100F980006D05146C8470028C0F2C08501362EE267
:100FA800182200210CA813F029FE6B78252B59D0A4
:100FB8006A1C174612F8013B2B2B00F08B8079D85E
:100FC800202B00F08C80232B00F08E809DF8383089
:100FD80003F04402442A03D16FF386138DF83830A6
:100FE8009DF838300A9743F080038DF838303B7805
:100FF8002A2B7ED19DF8393043F001038DF8393022
:101008007B1C0A931A782E2A0CBF012100219DF817
:10101800392061F341028DF839200BD15A1C0A920C
:101028005A782A2A7BD19DF83920023342F00402EB
:101038008DF83920194611F8010B6C2800F0CF8083
:101048007DD8682800F084806A2800F0D2804C2877
:1010580000F0D6809DF8392019466FF3C6028DF846
:10106800392080E0AA1C02928DF83B309DF8393077
:10107800DF0740F1788154F804BBBBF1000F07DAB1
:101088009DF83820CBF1000B42F004028DF838208F
:10109800580740F1718154F8048BB8F1000F80F2C1
:1010A80070819DF839306FF341038DF839304FF076
:1010B800FF3866E12D2B06D0302B87D19DF83830CC
:1010C80043F0400303E09DF8383043F004038DF803
:1010D80038306EE79DF8383043F00803F7E79DF89D
:1010E800383043F01003F2E79DF8383043F020031E
:1010F800EDE70AA805F03EFE0A9BBB4281D09DF8A9
:1011080038700F90C7F3400141EAD072520062F084
:101118007F0207F07D010A438DF8382071E70AA89D
:1011280005F028FE9DF838301090C3F3400242EADB
:10113800D07060F341038DF838300A9B7AE7742841
:101148009DF8392059D07A2884D11346062241E0E7
:101158005A78682A9DF839203AD1012161F3C602EC
:101168008DF83920991C0B4613F8012B782A029325
:101178008DF83B2000F2CD80572A55D8412A04D05B
:10118800A2F14503022B00F2C48004219DF83A30F5
:1011980061F302038DF83A3002F0DF03A3F141084E
:1011A8009DF83920D8F1000343EB080363F3C71215
:1011B8008DF83920D3B2120600F1D38003F07802FB
:1011C800182A40F0A3806FF3C6038DF839308AE0FF
:1011D8001346022262F3C6038DF83930C3E75A7802
:1011E8006C2A9DF8392001D10421B7E71346032260
:1011F800F0E705229DF83930ECE713460722E9E7C6
:10120800BDF8383023F4F04323F0020343F480435D
:1012180043F00203ADF83830A5E700BFAFF3008014
:101228000000000000000008A2F15803202B70D82D
:1012380001A151F823F000BFF31200001B130000B6
:101248001B1300001B1300001B1300001B130000DE
:101258001B1300001B1300001B1300009311000058
:101268001B130000F3120000C512000093110000C8
:1012780093110000931100001B130000C512000019
:101288001B1300001B1300001B1300001B1300009E
:1012980029130000F31200004D1300001B13000077
:1012A8001B1300004D1300001B130000F312000075
:1012B8001B1300001B130000F312000001219DF80E
:1012C8003A3061F302038DF83A309DF8393003F073
:1012D8007803402B02BF9DF8381041F001018DF8CA
:1012E8003810632A05D0002306E002219DF83A3021
:1012F800E7E7003B18BF01239DF83820C2F34001FF
:101308000B4363F341028DF83820AFE613F0380F32
:10131800E9D09DF8383043F001038DF83830E2E722
:1013280003229DF83A3062F302038DF83A309DF8B3
:10133800393003F07803A3F1400CDCF1000343EBF0
:101348000C03D9E703229DF83A3062F302038DF8C3
:101358003A309DF8393013F0780F14BF0123002379
:10136800CAE70123C8E79DF93820002AACBF4FF02F
:10137800FF3BDDF83CB08BE699077FF598AEDDF8CA
:1013880040800023CDE90F339DF83A309DF839109D
:1013980003F00702042A09D18A0707D49DF93920E6
:1013A800002AB4BF4FF00D084FF0060803F00703FA
:1013B800012BC1F3C30137D1CB1E042B21D8DFE8A1
:1013C80003F003090920200054F8043BDA17CDE99B
:1013D8000C3206E0073424F00704F4E80223CDE9D0
:1013E8000C239DF83870BB0756D02A46514648460C
:1013F800029B11F052F80028C0F290830644029D27
:10140800BEE554F8043B01294FEAE372CDE90C32FA
:1014180005D19DF830300C9300230D93E1E70229A4
:10142800DFD1BDF93030D1E7022B23D1CB1E042BFD
:1014380013D8DFE803F0030A0A121200002220681A
:10144800231D0C900D921C46CBE7E31D23F00703E8
:10145800B3EC027B8DED0C7BF5E754F8043B0129D6
:101468000C934FF000030D93D3D00229B9D1BDF8E6
:101478003030D0E7042B09D1E31D23F0070303F133
:101488000804D3E90023CDE90C23AAE7032B04BF02
:1014980054F8043B0C93A4E79DF83B20782AAED877
:1014A800572A00F28C80252A00F0D480242AA6D955
:1014B800412A03D0A2F14503022BA0D8DDE90C1381
:1014C800002BC0F2B681380700F1B58117F010077C
:1014D80018BF2027C3F30A55C3F31303CDE9081334
:1014E800002D40F0AA8151EA030014BF012000201A
:1014F800DB0243EA5153C902462A45EA010E43EA90
:10150800E57C08BF66225EEA0C0CCDE9081300F002
:101518000282002840F0CA81DDE908014FF0000C82
:101528004FF0050E634641F00041A5F2FE350991E2
:1015380015F1020FC0F2C181BCF1000F01D0CDE955
:101548000801DDE90801002D00F3CC81099808990C
:10155800C5F1040C1C3500FA05F5ACF1200E21FA92
:101568000CF120FA0EFE294341EA0E0120FA0CF094
:10157800CDE9081002F0DF01472940F0D381DD1CD6
:1015880002DB984580F2CA81023AB8F1000FD2B264
:1015980001DD08F1FF389DF83810880600F1C28196
:1015A800B8F1000FD4BF00210121662A039140F051
:1015B800BB8113EB080140F1B9810021B9E1A2F127
:1015C8005803202B3FF61BAF01A050F823F000BFB3
:1015D800DD170000071400000714000007140000BE
:1015E8000714000007140000071400000714000087
:1015F80007140000C5140000071400008916000035
:101608007D170000C5140000C5140000C5140000B3
:10161800071400007D1700000714000007140000DD
:10162800071400000714000013180000DD1700005D
:10163800E1170000071400000714000063160000FB
:1016480007140000DD17000007140000071400004D
:10165800DD170000514610469CE4B8F1000F0C9AC3
:1016680009DB41461046039213F042FC0027039A17
:10167800151862B9C3E610460392FFF76AFCF5E74E
:1016880000270C9B0DF14D058DF84C3013AAAB1AB1
:1016980007B101339DF83A00C10640F133820233A5
:1016A8000F9940060B4444BF10995B18BBF1000F1B
:1016B80023DDABEB030B9DF838305907C3F38008E3
:1016C8001BD4580640F13482002F00F03482514672
:1016D80038460392C8470028C0F2208247464FF098
:1016E8003008039A01365E445B46002BA6EB0B00DC
:1016F8000BF1FF3B00F30A82064647B151463846D4
:101708000392C8470028C0F20982039A01369DF85F
:101718003A30590640F163829DF93930B61A002BE8
:1017280080F218821746B846F31917F8010B70288B
:1017380040F004821E46109F1F44BB1B002B00F381
:1017480047822B4642465146484610F0A6FE0028DE
:10175800C0F2E481304406468344ABEB0603002B19
:101768007FF74DAE51462020C8470028C0F2D681E9
:101778000136F2E73D072BD417F0100718BF2027D2
:10178800DDE90C23002B05DA2D27524263EB4303D6
:10179800CDE90C23DDE90C010DF1650300930EAAD8
:1017A80013AB05F0FDFA0246B8F1000F0DF165051F
:1017B800FFF65FAF9DF83810AB1A6FF386119845A6
:1017C8008DF838107FF655AFA8EB03030F9350E759
:1017D8002B27D5E70027DDE70C98002800F08E813D
:1017E8000DF1650300930EAA13AB002105F0D8FA9A
:1017F800BDF83A30024603F0EF0343F4F04343F0F8
:1018080010030027ADF83A30CEE70C9B07293FF6C6
:10181800F6ADDFE801F00C04060C08080C0C1E708D
:10182800EDE51E80EBE5F217C3E90062E7E51E600F
:10183800E5E52D274EE62B274CE640F2FF70854262
:1018480031D1B9480132D2B2125C0B4302F0030223
:101858001BD1012A11D149238DF84C304E238DF824
:101868004D3046238DF84E309DF838300DF14F0538
:101878006FF386138DF8383008E769238DF84C30FC
:101888006E238DF84D306623ECE7012A07BF4E23FF
:1018980041226E2361220CBF8DF84C308DF84C30FC
:1018A8008DF84D20DEE7002022E6013D49185B4116
:1018B800002BFADACDE908132EE6400840EAC17099
:1018C8004908B1F1333FAC4605F10105F5D20EFBED
:1018D80001F5A0FB0E01013B29440CF102054FF074
:1018E800010C25E6023041F10001CDE9080108A804
:1018F800CDE9032310F0A2FDDDE90810049B039A4B
:10190800013D013349184041002805F1FF35F9DA56
:10191800CDE9081015E600231D4617E66622A8EB58
:10192800030838E6002140E608F101011029A8BFA4
:10193800102110208DED0A8B0D460790DDE90A0174
:10194800A5B9089D4019099D41EB0501B1F1805FDA
:101958001BD2CDE90801662A40F09880002B23DCD1
:1019680030210DF14D058DF84C102FE0400840EA6C
:10197800C1704908CDE90A010AA8CDE90423013D4F
:1019880010F05CFDDDE90423D8E7400840EAC170A7
:101998004908CDE9080108A8CDE9042310F04EFD57
:1019A800059B049A0133D6E713AD079900290BDD8F
:1019B80007A908A8CDE9042310F058FD059B049A4F
:1019C800013B05F8010BF0D10F9300239DF8381067
:1019D800890602D4B8F1000F1DDD2E2105F8011B80
:1019E8009BB1B8F1000F16DD59424145A8BF4146E9
:1019F80000290F91A8EB0108D4BF002101219DF80F
:101A08003A0061F345108DF83A00B8F1000F02DD95
:101A18000799002955DC0399002962D1CDF8408047
:101A280002F0DF01452920D12946002B01F8022BBD
:101A3800B6BF2D222B225B42632B6A7009DD64201E
:101A4800B3FBF0F200FB123302F1300CE91C85F80D
:101A580002C00A20B3FBF0F20D4600FB123302F17C
:101A6800300C303305F802CB4B700F9B002B43DC56
:101A7800109B002BD4BF002301239DF83A2063F369
:101A8800861200238DF83A202B70FFE507A908A8D5
:101A9800CDE9042310F0EAFCDDE904239DF83810B1
:101AA80030288DF84C0018BF03F1FF33880602D4A4
:101AB800B8F1000F12DD2E210DF14E058DF84D10F5
:101AC800A3E707A908A8CDE9042310F0CFFCDDE9B6
:101AD800042305F8010B08F1FF3896E70DF14D05D1
:101AE80099E700211091284615F8011D3029FAD0F0
:101AF8002E2918BF054693E70123BEE70B4D07467D
:101B08006A1FC4E5010748BF0133C9E5514640468D
:101B18000392C8470028039ABFF6E6AD1BB0BDEC98
:101B2800028BBDE8F08F00BF0F870100DD77010051
:101B38004FF02008D7E54FF03008D4E55146C847A4
:101B48000028BFF6F0ADE9E751460392C8470028E0
:101B5800039AE3DB1078374B1746C35C06EB0208A1
:101B68005B0702F10102EFD49DF83A300F9E990607
:101B780007D4B044002EA8EB060206F1FF360FDCAE
:101B8800904638782E2808D15146C8470028C5DB2A
:101B9800002E08F1010809DC0137A8EB07060EE062
:101BA80051463020C8470028E4DAB7E751463020CC
:101BB800C847013EEAE75146C8470028AEDBB846A9
:101BC8001C4AF31917F8010B125C5207F3D4B1E55C
:101BD80051463020C8470028A0DB0136ADE5D806BD
:101BE80001D4190707D5514630200392C847002869
:101BF80094DB039A01369DF83A30DB0608D5514646
:101C08009DF83B000392C847002887DB039A0136FA
:101C18000F9F3744BB1B002B01DC2B4693E5514635
:101C280030200392C8470028FFF678AF039A0136A0
:101C3800F0E700BF108701002DE9F04391B0189C30
:101C48008046670801379F420E46154640F085805A
:101C580000232246012102A811F00EFA029800285A
:101C68004CD0A64228BF26464FEA86094A46414636
:101C780012F09DFF0298A21B00219200484412F026
:101C8800BDFF202C67D0402C65D0802C1CD0B4F52B
:101C9800807F60D0B4F5007F5DD0B4F5806F5AD0F6
:101CA800B4F5006F57D0B4F5805F54D022463B4658
:101CB8002946029808F0B6F8044602A811F051F82F
:101CC800204611B0BDE8F0834023ADF82830264BFC
:101CD80001219A8906A8ADF834209A685B680C92AD
:101CE8000B93224B22460F930023ADF8384011F096
:101CF800C3F9069A22B906A811F033F81C4CDCE7A0
:101D0800082417A7D7E90067002302990AA811F049
:101D180050FE069B04351A6845F8042C5B68C5F824
:101D2800FC30069801AA204402210AF0EBFE019833
:101D3800FEF772FB32463B46FEF7C6FBFEF75EFE39
:101D48000834B4F5007F45F8040BEAD106A811F071
:101D580008F80024B1E7074CAFE7074CB0E700BF2D
:101D6800CD3B7F669EA0F63F746F0100746D010045
:101D780016FCFFFF08FCFFFF11FCFFFF000000003E
:101D88002DE9F04F2DED0C8BBDB00693BDF8483111
:101D9800144603939DF84C318B460A934B68F0EE3A
:101DA800408A0AEE903A1AEE902A4368B0EE60CA6A
:101DB8009342B0EE419A059040F05185549B81685A
:101DC8005A6801230A9803EB40030AB1013A134405
:101DD800994240F04485549B9A68012A40F03F8517
:101DE80000231AEE901A18A811F046F9189B002B38
:101DF80000F03185584618A907F01AFC50B1DFF8F1
:101E0800DCA418A810F0ADFF50463DB0BDEC0C8B1B
:101E1800BDE8F08F584618A907F0D0FB8246002885
:101E2800EDD1012C40F07781069B04904FEA6309BD
:101E3800DBF80430049A934240F2F182DBF8003078
:101E48001CEE100A0B93DBF80830B7EE00AA0C93CF
:101E580013460C9A53430D93FEF7DEFA0FF27043C4
:101E6800D3E90023FEF730FB044618EE900A0D462E
:101E7800FEF7D2FA0B46024629462046FEF74EFCEC
:101E880041EC100B01F0C4FA51EC100BFEF7B6FD53
:101E980009EE900A0220B0EE690A11F021F951EC1E
:101EA800100BFEF7ABFD042108EE100A484611F0AE
:101EB800DCFC04210790484611F0D7FC0421089067
:101EC800484611F0D2FC04210990484611F0CDFC97
:101ED80004210E90484611F0C8FC04210F90484692
:101EE80011F0C3FCDDE908850024079B10901193CD
:101EF800A14571DC0B9B0D9A03EB82070C9B1344E5
:101F08001E460B9B03EB86031193119BBB4200F00B
:101F1800EC80DDE90F450026079BDDF838800C933F
:101F2800099B0B93089B0D93B14540F3DC800D9BF7
:101F3800D5ED006AB3EC017A0D930B9BD4ED007AD2
:101F4800B3EC018A28EE268AA7EE278AD7ED007A15
:101F580038EE278A88ED008A0B930C9B54F8040B03
:101F6800F3EC017AF0EE679A0C93FEF755FA024605
:101F78000B46FEF7F3F841EC1B0B18EE100AFEF7C0
:101F88004BFA02460B4651EC1B0BFEF7E7F841EC07
:101F98001B0B55F8040BFEF73FFA02460B4651ECB3
:101FA8001B0BFEF7DBF841EC1B0B19EE900AFEF752
:101FB80033FA0B46024651EC1B0BFEF785FAFEF787
:101FC8001DFD386054F8043C013645F8043C58F8C7
:101FD800043B44F8043CA7E72046FEF70BFA024608
:101FE8000B46FEF7BBF80022BB4BFEF7B7F8B8A3C9
:101FF800D3E90023FEF768FA064606980F46FEF76F
:10200800F9F902460B46FEF7A9F802460B46304698
:102018003946FEF783FB41EC100B01F0A1F918EEED
:10202800100A8DED140BFEF7F7F941EC1B0B19EEB6
:10203800900AFEF7F1F902460B46FEF78FF80646BE
:102048000F46DDE91401FEF7D9FCFEF7E5F9024673
:102058000B4630463946FEF737FA02460B4641EC46
:102068001D0B51EC1B0BFEF779F800229A4BFEF77B
:1020780075F8FEF7C3FC07EE100AC8EE077A119B45
:102088000134E3EC017A1193FEF7C6F97AEE487A47
:10209800064617EE900A0F46FEF7BEF902460B46B3
:1020A800FEF75CF832463B46FEF738FBFEF7A6FC27
:1020B80053EC1D2B48F8040B51EC1B0BFEF74CF8A6
:1020C8000022854BFEF74AF801F100431393129062
:1020D8003246DDE912013B46FEF720FBFEF78EFC97
:1020E80045F8040B04E704370FE7079811F0BFFB26
:1020F800089811F0BCFB099811F0B9FB0E9811F083
:10210800B6FB0F9811F0B3FB109811F0B0FB049BCD
:10211800013304938CE6022C40F08181069B0490E5
:102128004FEA6309DBF80430049A934240F277815E
:10213800DBF800301CEE100A0B93DBF80830B7EE22
:1021480000AA0C9313460C9A53430D93FEF764F9B7
:102158005FA3D3E90023FEF7B7F9044618EE900A07
:102168000D46FEF759F90B46024629462046FEF76A
:10217800D5FA41EC100B01F04BF951EC100BFEF7BE
:102188003DFC09EE900A0220B0EE690A10F0A8FFA3
:1021980051EC100BFEF732FC042108EE100A4846F9
:1021A80011F063FB04210790484611F05EFB0421FF
:1021B8000890484611F059FB04210990484611F04F
:1021C80054FB04210E90484611F04FFB04210F9058
:1021D800484611F04AFBDDE908850024079B10906A
:1021E8001193A1457CDC0B9B0D9A03EB82070C9B9A
:1021F80013441E460B9B03EB86031193119B9F42CE
:1022080000F0F780DDE90F450026079BDDF83880F0
:102218000D93099B0C93089B0B93B14540F3E78002
:102228000B9B95ED006AF3EC016A0B930C9B94ED04
:10223800007AF3EC017A67EE867AE6EE877A97ED14
:10224800007A77EE877AC8ED007A0C930D9B17EE2B
:10225800900AB3EC017AB0EE478A0D93FEF7DCF8EA
:1022680041EC1B0B54F8040BFEF7D6F802460B465C
:10227800FDF774FF02460B4651EC1B0BFDF76CFF94
:1022880041EC1B0B55F8040BFEF7C6F802460B464B
:1022980051EC1B0BFDF762FF41EC1B0B18EE100A0B
:1022A800FEF7BAF80B46024651EC1B0BFEF70CF989
:1022B800FEF7A4FB386054F8043C013645F8043CAA
:1022C80058F8043B44F8043CA7E700BFAFF300808C
:1022D800182D4454FB2109400000F03F14FCFFFF77
:1022E8002046FEF787F802460B46FDF737FF002227
:1022F800C94BFDF733FFC6A3D3E90023FEF7E4F883
:10230800064606980F46FEF775F802460B46FDF797
:1023180025FF02460B4630463946FEF7FFF941ECE9
:10232800100B01F01DF818EE100A8DED120BFEF7D8
:1023380073F841EC1B0B19EE900AFEF76DF8024694
:102348000B46FDF70BFF06460F46DDE91201FEF7C7
:1023580055FBFEF761F802460B4630463946FEF754
:10236800B3F802460B4641EC1D0B51EC1B0BFDF775
:10237800F5FE0022A84BFDF7F1FEFEF73FFB07EE46
:10238800100ACAEE077A119B0134E3EC017A119323
:10239800FEF742F87AEE487A064617EE900A0F469C
:1023A800FEF73AF802460B46FDF7D8FE32463B46A2
:1023B800FEF7B4F9FEF722FB53EC1D2B48F8040B8B
:1023C80051EC1B0BFDF7C8FE0022934BFDF7C6FE30
:1023D80001F10043159314903246DDE914013B46A0
:1023E800FEF79CF9FEF70AFB45F8040BF9E60437FB
:1023F80004E7079811F03BFA089811F038FA0998A1
:1024080011F035FA0E9811F032FA0F9811F02FFAF0
:10241800109811F02CFA049B0133049382E60023F0
:1024280001221AEE901A1CA810F026FE1C9B002B05
:1024380000F00B82DBF804201D9B9A4240F00882D2
:102448001E9B012B40F004820024DBF80430A342D9
:1024580011D9DBF80810DBF8003001FB04F038AACA
:1024680003EB80000AF04EFB1C9B389A03EB8403B5
:102478001A600134E9E70A9A00231AEE901A52000A
:1024880020A810F0F9FD209B002B00F0DB81039BB6
:1024980000255E085B100AEE103A9FED608ADFF8AF
:1024A80080810136DBF80430AB4240F2B281DBF8C0
:1024B8000820DBF8003005FB02F124A803EB8103B8
:1024C800012110F0D9FD249B002B00F0B881324681
:1024D8000023012128A810F0CFFD289A002A00F037
:1024E800A881039B2699009324982A9BFFF7A4FBB5
:1024F800002840F0A181DDED037AB0EE007AF8EE15
:10250800677AF7EE009A87EE270AB4EE690AF1EEC9
:1025180010FA02D028A806F089FE002302220A99A0
:102528002CA810F0A9FD2C9B002B00F07F81299F7F
:10253800012F02D0DFF8ECA062E12E9B022BF9D12B
:102548002D9B002B00F0CC80394600232A9A34A812
:1025580010F092FD3499002900F02781C9EEA80AED
:1025680070EEA00A1AEE100AC9EEA00AB0EE480AE8
:1025780007F028F90446002840F0AC8003460A20FA
:102588002D993A46414338A810F076FD389800282E
:1025980000F00781299B012B40F005813A9A012A16
:1025A80040F00181289B2746F3EC017A2A99DDF84F
:1025B800E4C00139914240F2568193ED007AB4EEBD
:1025C800E77AF1EE10FA1EDDD3ED016AB4EEE67A91
:1025D800F1EE10FA17DD77EE677A37EE667A77EE66
:1025E800877AF5EEC07AF1EE10FA0CDD07EE902A44
:1025F800F8EEE77A00EB870E0137BFB2BC45CEEDA7
:10260800007A00F03081F3EC017A0132D2E700BFA2
:10261800182D4454FB2109400000F03F0000000041
:1026280016FCFFFF14FCFFFFDDE93007B84222D09B
:10263800A7EB00094FEAE902B2FA82F2C2F11F02DF
:102648004FF0000339465200049010F06AFCB9F1CB
:10265800800F04980CDD00F18009494610F000FC59
:102668004F4508D0484610F0E1FB09F10809F7E7A3
:10267800394610F0F5FBDDE93037FF1AFF102D99C8
:10268800B94217D830984FF0000C02462E9F2C9B69
:10269800BF000433614502F1080215D052F808EC76
:1026A8000CF1010C43F804EC52F804ECC3F800E018
:1026B8003B44EFE716A930A88DED168A8DED178AF1
:1026C800013710F088FDDAE708B112F01AFA38A8D5
:1026D80010F047FB34A810F044FB002C7FF42AAF1D
:1026E80000233246012130A810F0C6FC309B002B95
:1026F80000F0998000233246012134A810F0BCFC78
:10270800349B002B00F08D80B0EE680A039B34AA3E
:1027180030A924A807F030F90446002869D1549B51
:10272800012259680346013938A810F0A5FC389BE6
:10273800002B5AD0B0EE680A549A38AB34A930A8A6
:1027480007F06AF80446002850D1059B9F681B686B
:102758006F4303EB87073A461C9B03EB85031B6813
:1027680042F8043BDDE92D314FEA810C2C99043104
:10277800A34202F108021AD1DDE939010024B2EEC0
:10278800047A07EBC303389A89000433A04218D0AF
:10279800D2ED006AC6EE877A0134E3EC017A0A4486
:1027A800F4E7444693E74A4C91E7444692E751F8E8
:1027B800040C013442F8080C0868614442F8040C1F
:1027C800D6E738A810F0CDFA34A810F0CAFA30A825
:1027D80010F0C7FA2CA810F0C4FA28A810F0C1FA13
:1027E80024A810F0BEFA01355CE63A4C38A810F07F
:1027F800B8FA34A810F0B5FAA24630A810F0B1FA29
:102808002CA810F0AEFA28A810F0ABFA24A810F003
:10281800A8FA20A810F0A5FA1CA810F0A2FAFFF751
:10282800F0BA2C4CE5E7DFF8ACA0E6E7DFF8A4A0A7
:10283800E6E7DFF8A0A0E6E7DFF894A0E3E7DFF833
:1028480094A0E3E7DFF88CA0E3E7DFF888A0E3E7EC
:10285800DFF87CA0E0E7DFF87CA0FFF7D2BADFF86A
:1028680070A0FFF7D1BA00239946CDE930333293EF
:102878005FFA89F3BB42BFF6D7AE389A30A802EBAD
:102888008303D3ED007AFCEEE77A17EE901A349AB8
:1028980009F1010902EB8102126816A91692D3ED1B
:1028A800007AFCEEE77A17EE902A289B03EB820366
:1028B800D3ED007AB4EEE79AF1EE10FACDED177A7F
:1028C800C4BF8DED168A8DED178A10F084FCCFE712
:1028D80014FCFFFF16FCFFFF2DE9F04F2DED028BD6
:1028E800002585B010F0010A8B4614461F46039553
:1028F80009D063480AF0C6F82C46204605B0BDEC5E
:10290800028BBDE8F08F451003AB52462846CDF840
:1029180000A000F0B9F805EB4506039B06EBD67658
:1029280076100C3303EBC606002F58D1304610F052
:102938009AFF0446002CE0D0039B04F10C021344D8
:10294800636003EBC503A36000232260594600932C
:10295800284603AB05EBD57700F096F87F10BBF15E
:10296800000F42D057457DDD0AF1010A5046FDF7B8
:1029780041FD804628468946FDF73CFD02460B4648
:1029880040464946FDF7CAFE00223E4BFDF7E6FBEE
:1029980037A3D3E90023FDF797FD41EC100B41EC79
:1029A800180B00F005FC4FEACA08A36851EC100B9D
:1029B800A8F1080803EB0809FEF720F8B0EE480A6A
:1029C800F0EE680AC9F8000000F0CAFCA36851ECF0
:1029D800100B9844FEF712F8C8F80400C2E73B68E9
:1029E8003E60B342A6D2544687E75F453ADD0BF115
:1029F800010B5846FDF7FEFC804628468946FDF740
:102A0800F9FC02460B4640464946FDF787FE002280
:102A18001C4BFDF7A3FB18A3D3E90023FDF754FDD6
:102A280041EC100B41EC180B00F0C2FB4FEACB084D
:102A3800A36851EC100BA8F1080803EB0809FDF78F
:102A4800DDFFB0EE480AF0EE680AC9F8000000F0B1
:102A580087FCA36851EC100B9844FDF7CFFFC8F82A
:102A68000400C2E7109B002B3FF447AF1E6044E709
:102A7800182D4454FB210940182D4454FB2109C04A
:102A8800987E01000000E03F2DE9F84F00F1210792
:102A98002DED028B04460E461546DDF830B0FF00DA
:102AA800002B3DD1384610F0DEFE0546D0B3C5E90F
:102AB800004605F5847A002E44D056464FF0000AA9
:102AC8002046FDF797FCA2458046894606F1080690
:102AD80067DA5046FDF78EFC4BA3D3E90023FDF7D8
:102AE800F3FC42464B46FDF719FE41EC100B41EC56
:102AF800180B00F05DFB51EC100BFDF77FFFB0EEFB
:102B0800480AF0EE680A46F8080C00F029FC51EC77
:102B1800100BFDF773FF0AF1010A46F8040CCFE722
:102B280052B91F60BBF1000F01D0CBF800702846E6
:102B3800BDEC028BBDE8F88F1A681F60BA42B6D2A6
:102B48000025EFE72046FDF755FCA642804689465A
:102B58000AF1080A25DA3046FDF74CFC2CA3D3E924
:102B68000023FDF7B1FC42464B46FDF7D7FD41EC8B
:102B7800100B41EC180B00F01BFB51EC100BFDF790
:102B88003DFFB0EE480AF0EE680A4AF8080C00F07B
:102B9800E7FB51EC100BFDF731FF01364AF8040C46
:102BA800D0E72046FDF726FC41EC100B0CF01CFF8B
:102BB80000F052FB042659EC108B05F1080A94FB2F
:102BC800F6F306FB1342AAB1022E0FD0042E0FD043
:102BD80002363046FDF70EFC02460B464046494693
:102BE800FDF7E4FE002818BF2646E8E70326F0E7CD
:102BF8000226EEE7012B1C46CAE9006392DD0AF1C2
:102C0800080ADCE7AFF30080182D4454FB21194073
:102C1800182D4454FB2119C02DE9F0432DED028BEA
:102C28000B6804461E688946012E89B011D001251B
:102C38009C4BCDE9026501939B4B9C4A00934469E8
:102C48005D239B49A047284609B0BDEC028BBDE82F
:102C5800F0834B681D68012D0CD0924BCDE90256CC
:102C68000193944B914A009344695E239049A0478D
:102C78000125E8E7002211F00EFF804640B98E4B8F
:102C88000093602366692046884A8C49B047DAE792
:102C980083681B68002B04DC894B009366696123F9
:102CA800F1E700224946204611F0F8FE064620B911
:102CB800844B009366696323E5E7D9F8107027B958
:102CC800814B009366696523DDE798F80030072B90
:102CD80017D140F202412046A36B984720B97B4B9D
:102CE800009366696B23CEE7B86240F20241204642
:102CF800A36B984720B9764B009366696F23C2E7A8
:102D0800F862327898F80030072A0CD1092B3DD0A8
:102D1800072B17D06F4B0093752365692046634ACC
:102D28006649A847A4E79A4230D0CDE902326A4BF7
:102D380001936A4B00937823656920465B4A5C4996
:102D4800A84795E733694BB10022CDE90232644BBD
:102D58000193644B009365697D23EEE740F20122FD
:102D6800DFED610ABAEE040AB96A60480BF098FC14
:102D780040F20122F7EE000A9FED5B0AF96A5C480F
:102D88000BF08EFC3369FB61F3683B6298F80050E6
:102D9800D9F81490092D39D0072D40F029813369CD
:102DA8004BB10022CDE902324D4B01934D4B0093BC
:102DB80065692523C1E7DFED4F7A96ED037AB4EE16
:102DC800E77AF1EE10FADFED4C6ACCBF77EE677A5E
:102DD80077EEC77AF4EEE67AF1EE10FA40F3C180A6
:102DE8004FF07C53002217EE100ACDE90423FDF7BB
:102DF80013FB424BCDE902010193414B009326237B
:102E080065692046294A3F49A84731E730780728AD
:102E180033D1336913F5004F09D03B4ACDE902326B
:102E28003A4B01932F4B009365692B2385E7DFED20
:102E3800387A96ED037AB4EEE77AF1EE10FADFED20
:102E4800356ACCBF77EE677A77EEC77AF4EEE67A22
:102E5800F1EE10FA40F3A68000222F4B17EE100A6D
:102E6800CDE90423FDF7D8FA2C4BCDE902010193F3
:102E7800234B009365692C23C3E7092854D067695D
:102E88000CF082FB064628460CF07EFB244BCDE96D
:102E980002600193104B20460093044A2F232149D6
:102EA800B847E5E65D84010024840100A48301009D
:102EB80019800100348401007F81010068810100CC
:102EC80045840100A28101005F8401007A84010029
:102ED80091840100B4840100CE810100DB810100EE
:102EE8005A790100EE84010000000000993E0100BB
:102EF8008B3E0100000000386F1203332885010063
:102F080034850100088501000080FFFF4985010024
:102F1800000080376F1283320000F03E50850100B8
:102F28005C850100B4810100336913F1800F0AD078
:102F38006FF07F02CDE90232494B0193494B009370
:102F480065693023F9E696ED037ADFED477AB4EE4A
:102F5800677AF1EE10FA25D0444B00936569312366
:102F6800DCE6D8F80C00FDF757FA0446D9F800005B
:102F78000D46FDF751FA02460B4620462946FDF755
:102F8800A3FA35A3D3E90023FDF7C8FB07F1080628
:102F980041EC100B304607A90CF002FB079BFB60C5
:102FA800002550E6D8F80C00FDF736FA41EC180B6E
:102FB800D9F80000FDF730FA07F1080441EC100BCE
:102FC800B0EE481AF0EE681A2146052007AA00F06C
:102FD8005BF807991F22F960052011F0E6FCFDF760
:102FE80009FA01F100431946FDF716FEB861D7E763
:102FF800012D13D0284666690CF0C6FA0546012053
:103008000CF0C2FA1A4BCDE902500193194B204635
:103018000093194A4E231949B04729E63078012808
:1030280012D067690CF0B0FA064628460CF0ACFAE4
:103038000F4BCDE902600193114B204600930E4AD5
:103048004F230E49B847FEE5D9F80000FDF7E4F92B
:10305800C7E90001A4E700BF140014001400243FCE
:1030680068850100EE8401000000803B6D85010049
:103078008F850100DB810100A4830100B481010078
:10308800CE810100000000002DE9F84F4FF0004309
:103098002DED028B23FA00F057EC106B59EC118BD5
:1030A80093468A46FDF7A6F9424604460D464B4626
:1030B80030463946FDF708FA02460B4620462946AF
:1030C800FDF702FA02460B4643EC182B0AA3D3E994
:1030D8000023FDF789FC08B19FED078B5946504640
:1030E800B0EE480AF0EE680ABDEC028BBDE8F84F76
:1030F8000CF098BAAFF300800000C0FFFFFFDF417B
:103108002DE9F74F0446DDE90C7BC86815461E46D5
:103118008A46FDF781F98046E8688946FDF77CF91B
:1031280002460B4640464946FDF7CEF98046894699
:10313800D6B1F068FDF770F902460B46404649469D
:10314800FDF70AF88046F86821F00049FDF764F9B0
:1031580002460B4640464946FDF7E0FA11A3D3E97B
:103168000023FDF72DFC50B13B462A465146204628
:10317800CDF830B003B0BDE8F04F0CF06FBA064B95
:103188002046009365694FF4A273044A0449A8478E
:10319800012003B0BDE8F08FAB8601001686010060
:1031A800688101007B14AE47E17A943F000000007B
:1031B8001FB553EC102B23F000412548814206DC53
:1031C8009FED211B05B05DF804EB01F081B82148A3
:1031D800814209DD10EE100A1946FCF7BDFF41ECEB
:1031E800100B05B05DF804FB684600F065FE00F0C2
:1031F800030001280BD0022816D0E0B99DED021B70
:103208009DED000B01F064F851EC100BE7E79DED24
:10321800021B9DED000B01F06FFC10EE100A53EC41
:10322800102B03F10041DAE79DED021B9DED000B29
:1032380001F04EF8F1E79DED021B9DED000B01201A
:1032480001F05AFCE0E700BF0000000000000000A9
:10325800FB21E93FFFFFEF7F51EC100B2DE9F04117
:10326800C1F30A570C4610EE105A10EE108AA7F256
:10327800FF36132E33DC002E14DA35A3D3E90023EE
:10328800FCF76CFF00220023FDF7AEFB38B1002CE1
:1032980058DA24F000431D4301D000252E4C214666
:1032A800284626E02D4F374101EA0703034320D083
:1032B80027A3D3E90023FCF751FF00220023FDF7E1
:1032C80093FB0028EBD0002C4FF00005BEBF4FF455
:1032D800801343FA06F6A41924EA0704DFE7332E1D
:1032E8000BDDB6F5806F04D110EE102A0B46FCF703
:1032F80035FF41EC100BBDE8F081A7F213474FF002
:10330800FF3323FA07F70742F3D011A3D3E90023C9
:10331800FCF724FF00220023FDF766FB0028BED03F
:10332800002C02DA142E03D1013425EA0705B6E78A
:103338000123C6F1340603FA06F63544454538BF7D
:10334800E418F2E700252C46A9E700BFAFF3008098
:103358009C7500883CE4377E0000F0BFFFFF0F003B
:103368001FB553EC102B23F000412748814207DC9E
:1033780000209FED231B05B05DF804EB01F0BCBBFA
:103388002248814209DD10EE100A1946FCF7E4FED6
:1033980041EC100B05B05DF804FB684600F08CFDAD
:1033A80000F0030001280CD0022811D0F0B9012048
:1033B8009DED021B9DED000B01F09EFB51EC100BE7
:1033C800E6E79DED021B9DED000B00F081FFF5E7A0
:1033D8009DED021B9DED000B012001F08DFB10EE11
:1033E800100A53EC102B03F10041D1E79DED021BAD
:1033F8009DED000B00F06CFFF1E700BFAFF300801C
:103408000000000000000000FB21E93FFFFFEF7F04
:103418001FB553EC102B23F000411548814207DCFF
:1034280001209FED111B05B05DF804EB01F024BCF1
:103438001048814209DD10EE100A1946FCF78CFE8F
:1034480041EC100B05B05DF804FB684600F034FD54
:10345800400000F002009DED021B9DED000BC0F145
:10346800010001F009FCEDE7000000000000000089
:10347800FB21E93FFFFFEF7F2DE9F04F2DED068B94
:1034880089B08DED001BDDE9000753EC102B27F008
:10349800004656EA000100F0CD8423F000447E493E
:1034A800994610EE108A8C4209DC03D17AB9A642FB
:1034B80002DD0CE08E4202DC8E4210D178B104F1BC
:1034C800404404F5801454EA080300F0B3847348B8
:1034D80009B0BDEC068BBDE8F04F01F0A1BDB9F114
:1034E800000F36DA6E498E4251DCA1F154718E42DA
:1034F80040F3AB843115A1F2FF3114290FDDC1F17E
:10350800340120FA01FC0CFA01F1814240F09D845B
:103518000CF0010CCCF10201049180B159E00028B3
:1035280055D1C1F1140146FA01FC0CFA01F1B1427E
:1035380040F088840CF0010CCCF102010491594947
:103548008E422DD1002F79DA00205649FDF7E6F892
:1035580016E00021049100283BD14F498E42EED15C
:1035680004F1404303F5801353EA080300F0628432
:103578004D4B9C420DDD002F80F26084002000211D
:1035880041EC100B09B0BDEC068BBDE8F08F0221B1
:10359800E0E7002FF2DADDE9000303F10041EFE78D
:1035A800B7F1804F04D110461946FCF78DFFE7E7C5
:1035B8003E498F420DD1B9F1000F0ADB43EC102BC5
:1035C80009B0BDEC068BBDE8F04F0CF0A5BA0021A0
:1035D800049143EC102BCDE9022311F0AFFADDE999
:1035E800022351EC100BB8F1000F2AD12CB129F0AD
:1035F800404EDFF8B0C0E64523D1002F05DA024679
:103608000B4600202749FDF789F8B9F1000FB7DA12
:1036180004F14044049B04F58014234308D1024676
:103628000B4610461946FCF797FD02460B468DE7F8
:10363800049B012BA4D1024601F100431046194610
:103648009EE74FEAD97C0CF1FF350695049DAC4600
:10365800069D5CEA0505E4D0154B9E4240F3FC80CC
:1036680003F104739E42104B07DD9C420ADC002FD5
:1036780084DA07A3D3E9002395E79C42F7DB094BDB
:103688009C4217DD002FF4DC78E700BFAFF3008021
:103698009C7500883CE4377E0000F07FB279010019
:1036A800FFFF3F430000F03FFFFFEF3F0000E03F18
:1036B8000000E0410022644BFCF74EFD04460D4635
:1036C80055A3D3E90023FCF7FFFE06460F46204624
:1036D800294653A3D3E90023FCF7F6FE00228246CD
:1036E8008B465A4B20462946FCF7EEFE02460B460F
:1036F8004DA1D1E90001FCF72FFD22462B46FCF72E
:10370800E3FE02460B4600205149FCF725FD8046A2
:10371800894622462B4620462946FCF7D5FE024616
:103728000B4640464946FCF7CFFE41A3D3E90023A8
:10373800FCF7CAFE02460B4650465946FCF70CFDFC
:1037480002460B468046894630463946FCF706FD58
:10375800002032463B4604460D46FCF7FDFC024677
:103768000B4640464946FCF7F7FC049B069A8246FE
:10377800013B8B46134340F0F0819FED2F7BDDE941
:1037880000670026B0EE478AF0EE678A3B4632466D
:10379800DDE90001FCF7E0FC22462B46FCF794FE2D
:1037A8008046894650465946DDE90023FCF78CFEE1
:1037B80002460B4640464946FCF7D0FC80468946FF
:1037C80032463B4620462946FCF77EFE0B46044619
:1037D8000D46024649464046FCF7C0FC1D4B0646CE
:1037E8000F4699428B4645EC194B40F3FA8201F19A
:1037F8003F4303F5E003034300F0EC8110A3D3E952
:10380800002351EC180BFCF75FFE0DA3D3E900234E
:10381800CBE600BFAFF30080000000604715F73F1C
:1038280044DF5DF80BAE543E555555555555D53FBB
:10383800FE822B654715F73F000000000000F0BF2F
:103848009C7500883CE4377E0000F03F0000D03FC4
:103858000000E03FFFFF8F40D54B002203EA090339
:103868002BB9D44BFCF730FE6FF034020C4623150D
:10387800C4F31304A3F2FF3344F07F55134445F413
:1038880040150593CC4B9C4208DDCC4B9C4240F341
:103898006281059BA5F58015013305930024E3009B
:1038A80082462946AB460793C54B03EBC40393ED09
:1038B800007BB0EE479AF0EE679A53EC172BFCF7B3
:1038C8004BFC524606460F462B466D1051EC190B21
:1038D800FCF744FC02460B460020BA4945F0005567
:1038E800FCF71CFF02460B4605F5002541EC1A0BB8
:1038F80030463946FCF7E8FD00230022CDE90201F5
:10390800029305EB844314461D46DDE9028941EC28
:10391800180B40464946FCF7D7FD02460B46304691
:103928003946FCF719FC06460F462046294653EC53
:10393800192BFCF711FC02460B4650465946FCF77A
:103948000BFC42464B46FCF7BFFD02460B46304691
:103958003946FCF701FC53EC1A2BFCF7B5FD53EC88
:10396800182B41EC190B51EC180BFCF7ADFD044674
:103978000D467BA3D3E90023FCF7A6FD7AA3D3E980
:103988000023FCF7EBFB22462B46FCF79DFD78A3B2
:10399800D3E90023FCF7E2FB22462B46FCF794FD13
:1039A80075A3D3E90023FCF7D9FB22462B46FCF785
:1039B8008BFD73A3D3E90023FCF7D0FB22462B46EB
:1039C800FCF782FD70A3D3E90023FCF7C7FB06468A
:1039D8000F4622462B4620462946FCF775FD02462F
:1039E8000B4630463946FCF76FFD424604460D4605
:1039F8004B4651EC180BFCF7B1FB53EC192BFCF7B9
:103A080063FD22462B46FCF7A9FB424682468B46BD
:103A18004B4640464946FCF757FD00226A4B06468E
:103A28000F46FCF79BFB52465B46FCF797FB0020D2
:103A38000D460B460446024649464046FCF744FDFF
:103A4800002280468946604B20462946FCF784FBC5
:103A580032463B46FCF780FB02460B465046594629
:103A6800FCF77AFB53EC182BFCF72EFD06460F46A5
:103A780022462B4651EC190BFCF726FD02460B4655
:103A880030463946FCF76AFB06460F4602460B46A7
:103A980040464946FCF762FB00200D4604463CA31D
:103AA800D3E90023FCF710FD42464B4641EC180BC6
:103AB80020462946FCF750FB02460B46304639465D
:103AC800FCF74AFB34A3D3E90023FCF7FDFC0646C8
:103AD8000F462046294632A3D3E90023FCF7F4FC1D
:103AE80002460B4630463946FCF738FB079A374BF7
:103AF8001344D3E90023FCF731FB824605988B4633
:103B0800FCF778FC079A324B06460F461344524698
:103B1800D3E9008951EC180B5B46FCF71FFB4246C2
:103B28004B46FCF71BFB32463B46FCF717FB0020D5
:103B380032463B4604460D46FCF70EFB42464B46D2
:103B4800FCF70AFB53EC182BFCF706FB02460B4666
:103B58005046594607E60124A1E69FED137B0EE681
:103B6800EF4E454A287ECA3F65DBC9934A86CD3F5A
:103B780001411DA96074D13F4D268F515555D53F40
:103B8800FFAB6FDBB66DDB3F033333333333E33FD8
:103B9800000000E009C7EE3FFD033ADC09C7EE3F2D
:103BA800F5015B14E02F3EBE000000000000F03F6E
:103BB8000000F07F000040438E98030079B60B00A8
:103BC800B05F01000000F03F00000840D05F010036
:103BD800C05F0100B5A3D3E9002340464946FCF77E
:103BE800BDFA22462B4641EC1A0B30463946FCF703
:103BF800B3FA02460B4651EC1A0BFCF7F5FE002807
:103C08007FF4FCAD2BF00043A34A934240F30B81B1
:103C18001B154FF4801AA14E0020A3F2FE33BBF10E
:103C2800000F4AFA03F35B44C3F30A52C3F3130ABF
:103C3800A2F2FF324AF4801A46FA02F6C2F11402DE
:103C480023EA06014AFA02FA024620460B462946AA
:103C5800B8BFCAF1000AFCF77FFA41EC190B4246DB
:103C68004B4651EC190BFCF779FA00200D46044637
:103C780077A3D3E90023FCF727FC06460F46204626
:103C8800294653EC192BFCF767FA02460B464046C7
:103C98004946FCF761FA70A3D3E90023FCF714FC4A
:103CA80080468946204629466DA3D3E90023FCF7C0
:103CB8000BFC02460B4640464946FCF74FFA0446C1
:103CC8000D4602460B4630463946FCF747FA32465F
:103CD800804689463B46FCF73FFA02460B4620469B
:103CE8002946FCF739FA424606460F464B464046F7
:103CF8004946FCF7E9FB04460D465BA3D3E90023DC
:103D0800FCF7E2FB5AA3D3E90023FCF725FA224685
:103D18002B46FCF7D9FB58A3D3E90023FCF71EFA7E
:103D280022462B46FCF7D0FB55A3D3E90023FCF72A
:103D380013FA22462B46FCF7C7FB53A3D3E900230B
:103D4800FCF70CFA22462B46FCF7BEFB02460B4654
:103D580040464946FCF700FA04460D4602460B4623
:103D680040464946FCF7B0FB00224FF0804341EC47
:103D7800190B20462946FCF7EFF902460B4651EC91
:103D8800190BFCF7CBFC324604460D463B46404631
:103D98004946FCF799FB32463B46FCF7DFF90246F9
:103DA8000B4620462946FCF7D7F942464B46FCF716
:103DB800D3F90B4602463A490020FCF7CDF941EC0D
:103DC800100B10EE903A03EB0A53B3F5801F2DDA6F
:103DD800504601F02DF951EC100B53EC182BFFF75E
:103DE800E4BB21F000462F4B9E427FF70BAF2E4BD2
:103DF8000B4403430BD026A3D3E9002351EC180B43
:103E0800FCF762FB22A3D3E90023FFF7CEBB2246CF
:103E18002B46FCF7A1F942464B46FCF7DBFD002890
:103E28003FF4F0AEE7E74FF0000A18E751EC100B4B
:103E38001946D2E700201A49FFF7A2BBDDE90001C5
:103E4800FFF79EBB0490FFF77ABB0021FFF764BB26
:103E580000000000432EE63FEF39FAFE422EE63F0F
:103E6800396CA80C615C20BED0A4BE726937663E6E
:103E7800F16BD2C541BDBB3E2CDE25AF6A56113F62
:103E880093BDBE166CC1663F3E5555555555C53F49
:103E980059F3F8C21F6EA5010000E03FFFFF0F00B5
:103EA8000000F03FFFCB904000346F3FFE822B654F
:103EB8004715973C000000002DE9F04F55EC104BDA
:103EC80025F00048CA4B824698452DED028B8BB0F1
:103ED800029508DC0022002380ED000BC0E90223D4
:103EE8004FF0000B28E0C34B984578DC029B10EE9E
:103EF800100AC14E2946002BAFA3D3E9002339DDB0
:103F0800FCF72AF9B04504460D461BD0ACA3D3E90B
:103F18000023FCF721F902460B4620462946CAE948
:103F28000023FCF719F9A6A3D3E900234FF0010BEE
:103F3800FCF712F9CAE9020158460BB0BDEC028B36
:103F4800BDE8F08FA0A3D3E90023FCF705F90446E8
:103F58000D469FA3D3E90023FCF7FEF802460B4663
:103F680020462946CAE90023FCF7F6F898A3D3E9C6
:103F78000023DBE7FCF7F2F8B04504460D4616D0FF
:103F88008FA3D3E90023FCF7E9F802460B46204645
:103F98002946CAE90023FCF7DFF889A3D3E90023FF
:103FA800FCF7DCF84FF0FF3BCAE90201C4E786A33F
:103FB800D3E90023FCF7D2F804460D4684A3D3E9DD
:103FC8000023FCF7CBF802460B4620462946CAE9EF
:103FD8000023FCF7C1F87EA3D3E90023E0E7874B71
:103FE800984500F3D98010F0A9FD10EE100A55ECA1
:103FF800104B79A3D3E900232946FCF765FA002280
:104008007F4BFCF7ABF8FCF707FE8346FCF7F2F9A9
:1040180002460B4643EC182B67A3D3E90023FCF7B1
:1040280053FA02460B4620462946FCF795F8064601
:104038000F4663A3D3E9002351EC180BFCF744FAAD
:10404800BBF11F0F04460D460DDC0BF1FF326D4B23
:1040580053F82230434506D022462B46304639468F
:10406800FCF77AF80FE02B46224630463946FCF733
:1040780073F84FEA28530393C1F30A53C3EB185854
:10408800B8F1100F02DCCAE9000139E04EA3D3E908
:10409800002351EC180BFCF717FA04460D460246AC
:1040A8000B4630463946FCF757F802460B46804621
:1040B800894630463946FCF74FF822462B46FCF72E
:1040C8004BF804460D4642A3D3E9002351EC180BE4
:1040D800FCF7FAF922462B46FCF73EF802460B4657
:1040E80004460D4640464946FCF736F8039AC1F3A4
:1040F8000A53D31A312B24DC46464F46CAE900013D
:10410800DAE900893046394642464B46FCF724F83E
:104118002B462246FCF720F8029B002BCAE9020135
:10412800BFF60AAF09F10043CAF80080CAF80800D0
:10413800CAF8043001F10043CAF80C30CBF1000B87
:10414800FAE627A3D3E9002351EC180BFCF7BCF9D6
:1041580004460D4602460B4640464946FBF7FCFF1F
:1041680002460B4606460F4640464946FBF7F4FF13
:1041780022462B46FBF7F0FF04460D461AA3D3E967
:10418800002351EC180BFCF79FF922462B46FBF74E
:10419800E3FF04460D465FE71B4B984536DD10EEFE
:1041A800102A2B4620462946FBF7D6FFCAE902010A
:1041B800CAE9000194E600BF00004054FB21F93F22
:1041C8003163621A61B4D03D0000601A61B4D03D19
:1041D8007370032E8A19A33B83C8C96D305FE43F0F
:1041E8000000002E8A19A33BC14920259A837B39F8
:1041F800FB21E93F7BD90240FB21F93FFB213941F3
:104208000000E03F20720100FFFFEF7F4FEA2854D3
:1042180010EE100A10EE106A04ADA4F21644A94676
:10422800A8EB04514FF003080F46FCF7F5FCFCF728
:10423800E1F802460B4630463946CDE90423FBF740
:104248008BFF0022204BFCF73FF90F460646FCF790
:10425800E3FCFCF7CFF802460B4630463946002609
:104268000027CDE90623FBF777FF0022164BFCF762
:104278002BF9CDE9080132463B46C346083D08F113
:10428800FF38D5E90601FCF787FB0028F3D10F4B6F
:104298002246514648460193022300935B4600F0AC
:1042A800DFF8029B8346002BBFF646AEDAE9002111
:1042B80001F10043CAE90023DAE9022101F10043D0
:1042C800CAE902233AE700BF00007041A07201006A
:1042D8002DE9F74F57EC106B27F00048B8F1795FDC
:1042E8008DED001B07DA10EE100A3946FCF794FC36
:1042F800002800F0888032463B4630463946FCF7B5
:10430800E3F804460D4600224F4BFCF7DDF88246E1
:104318008B46204629463EA3D3E90023FCF7D4F870
:104328003DA3D3E90023FBF719FF22462B46FCF7F0
:10433800CBF83BA3D3E90023FBF70EFF22462B461D
:10434800FCF7C2F838A3D3E90023FBF707FF22469E
:104358002B46FCF7B9F836A3D3E90023FBF7FCFE9C
:1043680022462B46FCF7B0F833A3D3E90023FBF72A
:10437800F5FE22462B46FCF7A7F822462B46FCF70B
:10438800A3F804460D4630463946DDE90023FCF71C
:104398009BF80B46024629462046FBF7DDFE2B4BD1
:1043A80006460F46984510DC02460B4650465946CD
:1043B800FBF7D2FE02460B4600202549FBF7CCFE50
:1043C80041EC100B03B0BDE8F08F224B0024002015
:1043D8001F4998452246D4BFA8F500151E4D2B4607
:1043E800FBF7BAFE2246804689462B465046594678
:1043F800FBF7B2FE32463B46FBF7AEFE02460B46E3
:1044080040464946DAE79FED0E0BDBE7AFF3008045
:10441800D43888BEE9FAA8BDC4B1B4BD9EEE213E29
:10442800AD529C804F7E923E9015CB19A001FA3E6A
:104438007751C1166CC1563F4C5555555555A53F3A
:10444800000000000000F03F0000E03F3233D33F9F
:104458000000F03F0000E93F0000D23F00000000EC
:104468002DE9F04F2DED028BADF51B7D12F1140FE8
:104478004FF000050893A8BFD41EC34BB8BF002453
:10448800019122AEA6990B9053F821300293089B14
:1044980003F1FF330693A4BF182394FBF3F46FF0E2
:1044A800170304FB033303EB020A029B069A03EB90
:1044B8000208A71AA79B9FEDB08B03EB8709454518
:1044C80013DD22AA089B0DF5E47B4FF0000802EBF0
:1044D800C3059FEDA98B029B98452EDCDDF82C9037
:1044E8002F4600268DED048B1BE0EF4207D459F8C8
:1044F8002500FBF77FFF0135E6E80201DFE751EC15
:10450800180BF8E7D7E90023F9E802010136FBF7B1
:10451800DBFF02460B46DDE90401FBF71FFECDE990
:104528000401069B083F9E42ECDD08F101080835AE
:104538009DED047BABEC027BCDE7029B0EAA02EB60
:1045480083030D93A79B03EB8403029C0C93E30066
:104558000DF13808A1460A939AABC34603EBC4038E
:1045680053E9286772AB03EBC405B9F1000FA5F155
:10457800080577DC504647EC106B00F059FD002227
:104588004FF07F5310EE100A57EC106B3946FBF7CB
:104598009BFF41EC100BFEF75FFE00227B4B51ECBA
:1045A800100BFBF791FF02460B4630463946FBF7E6
:1045B800D3FD0F460646FCF72FFB0490FBF71AFFC6
:1045C80002460B4630463946FBF7C6FDBAF1000FE6
:1045D80006460F466DDD621E0EABCAF11801049D3A
:1045E80053F8220040FA01F31D448B40C01A0EAB69
:1045F800049543F82200CAF1170340FA03FBBBF104
:10460800000F65DD049B00226FF07F4101331546E2
:104618000493944200F39C80BAF1000F07DDBAF1CD
:10462800010F00F0BF80BAF1020F00F0C580BBF1A6
:10463800020F4DD132463B4600205549FBF78CFD11
:1046480006460F46002D43D050469FED4D0B00F017
:10465800EFFC3046394653EC102BFBF77DFD064640
:104668000F4635E000224B4B30463946FBF72CFF0E
:1046780009F1FF39FCF7D0FAFBF7BCFE02460B46FE
:1046880043EC182B0022444BFBF71EFF02460B4657
:1046980030463946FBF760FDFCF7BEFA4BF8040BD1
:1046A800D5E9002351EC180BFBF758FD06460F46D9
:1046B8005BE706D1631E0EAA52F823004FEAE05BBF
:1046C8009DE70022354BFCF785F900283DD183464C
:1046D8000022002330463946FCF75EF9002800F036
:1046E800BE80651E00222B4602998B426BDA002A97
:1046F80000F087800EABAAF1180A53F82530002B7A
:1047080000F0AB805046EC00AA469FED1D0B00F070
:104718008FFC9AAB03EBC503A3F1980857EC106B19
:10472800BAF1000F80F2D4802E469FED138B002E35
:10473800C0F2028172ABDFF868A04FF00008AF1B2F
:1047480003EBC6098DED068BE8E04FF0020B59E745
:10475800D8F8003055B923B1C3F18073C8F80030D8
:104768000123013208F104081D4652E7CB1AC8F8A4
:1047780000302B46F5E700BF0000000000000000F5
:10478800000000000000F03FC0730100000020405E
:104798000000F03F0000703E000070410000E03F64
:1047A800E05F0100621E0EAB53F82230C3F316031C
:1047B8000EA941F822303AE7621E0EAB53F82230B8
:1047C800C3F31503F4E70EA951F82310013B0A437C
:1047D8008AE7013352F8041D0029FAD00A9A9AA9E7
:1047E800E31804F101080A440493983A0A92089AD3
:1047F800A51822AA02EBC505049B434504DA1C460A
:10480800A5E60D9A0123E5E70C9B4FF00009002669
:10481800002753F82800FBF7EDFD0B9BE5E80201A4
:104828001C46AB46069B994506DD0A9B08F1010824
:10483800E3E802670A93DFE77BE90223F4E8020171
:10484800FBF742FE02460B463046394609F101099C
:10485800FBF784FC06460F46E4E7013D4AE7CAF148
:10486800000047EC106B00F0E3FB0022A04B10EEB9
:10487800100A57EC106B3946FCF7ACF8F8B1002277
:104888009C4B30463946FBF71FFE651CFCF7C4F904
:104898008046FBF7AFFD0022954B0AF1180AFBF79B
:1048A80013FE0B46024639463046FBF755FCFCF72B
:1048B800B3F90EAB43F8240043F8258022E73046CD
:1048C8003946FCF7A9F90EAB254643F8240019E749
:1048D8000EAB53F82A000AF1FF3AFBF78BFD32467C
:1048E8003B46FBF7F1FD0022824B68E902013046A6
:1048F8003946FBF7E9FD06460F4611E7F9E80223BA
:10490800FAE8020108F10108FBF7DEFD02460B4652
:10491800DDE90601FBF722FCCDE90601029B98457B
:1049280001DCB845EADD4AAB013E9DED067B03EBB1
:10493800C70787ED007BFAE6A69B022B0BDC002B52
:1049480035DC59D0049B03F007000DF51B7DBDEC49
:10495800028BBDE8F08FA69B032BF3D14AAB0295DF
:1049680023441C469A460693029BAAF1080A002B88
:1049780069DCAA46BAF1010FA4F1080400F38380A8
:10498800069C002000210834012D00F39B80DDE9FE
:104998004A56DDE94C78BBF1000F40F09980019B45
:1049A800C3E90056C3E90278C3E90401CAE7083439
:1049B8004AAB2E4600201C440021002E34DABBF1FD
:1049C800000F37D0024601F10043019C4CAEC4E908
:1049D8000023012402460B46DDE94A01FBF7BCFB34
:1049E800A5422ADABBF1000F02D001F100431946B3
:1049F800019BC3E90201A5E79AAB002000211C44F2
:104A0800A4F59C74002D09DABBF1000F02D001F166
:104A180000431946019BC3E9000193E774E90223A7
:104A2800013DFBF79BFBEDE774E90223013EFBF731
:104A380095FBC2E702460B46C7E7F6E802230134B6
:104A4800FBF78CFBCCE7029BDAE90089DAE902671D
:104A5800013B40463246494602933B46FBF77EFB04
:104A680002460B46CDE9080140464946FBF774FB70
:104A780032463B46FBF772FB9DED087BCAE9020113
:104A88008AED007B70E7D4E90089D4E902674046E3
:104A9800494632463B46FBF761FB02460B460AF1A4
:104AA800FF3ACDE9020140464946FBF755FB32463D
:104AB8003B46FBF753FB9DED027BC4E9020184ED05
:104AC800007B57E774E90223013DFBF747FB5BE7EF
:104AD800019B06F10044019A1D605C609F6008F12B
:104AE80000431061D36001F1004353612AE700BF1E
:104AF800000070410000703E2DE9F04F55EC104B5E
:104B080025F000432DED048BB3F1795F83B0B0EE4F
:104B1800418AF0EE618A019006DA10EE100A294601
:104B2800FCF77AF8002851D022462B462046294621
:104B3800FBF7CAFC82468B4602460B4620462946AE
:104B4800FBF7C2FC80468946504659463FA3D3E945
:104B58000023FBF7B9FC3FA3D3E90023FBF7FCFADA
:104B680052465B46FBF7B0FC3CA3D3E90023FBF7B6
:104B7800F5FA52465B46FBF7A7FC3AA3D3E90023B4
:104B8800FBF7EAFA52465B46FBF79EFC37A3D3E9EC
:104B98000023FBF7E3FA019B06460F46EBB90246F2
:104BA8000B4650465946FBF78FFC25A3D3E9002353
:104BB800FBF7D2FA42464B46FBF786FC02460B4609
:104BC80020462946FBF7CAFA04460D4645EC104B29
:104BD80003B0BDEC048BBDE8F08F00221A4B51ECFA
:104BE800180BFBF771FC32463B4641EC190B40466B
:104BF8004946FBF769FC02460B4651EC190BFBF7DB
:104C0800ABFA52465B46FBF75FFC53EC182BFBF7FD
:104C1800A3FA06460F464046494609A3D3E90023AE
:104C2800FBF752FC02460B4630463946FBF796FA2C
:104C380002460B4620462946FBF78EFAC4E700BF1A
:104C4800495555555555C53F0000E03F7CD5CF5ACD
:104C58003AD9E53DEB9C2B8AE6E55A3E7DFEB157F5
:104C6800E31DC73ED561C119A0012A3FA6F810115E
:104C78001111813F000000002DE9F04F5BEC10ABF3
:104C88002BF00047E04B06469F422DED048B85B084
:104C98008DED001BCDF80CB024DC10EE100A59463F
:104CA800FBF7BAFF002848D1731C524613433B4315
:104CB80012D14BEC10AB0FF041FF0020D34953EC5D
:104CC800102BFBF72BFD82468B464BEC10AB05B047
:104CD800BDEC048BBDE8F08F012EF6D05B460020BA
:104CE800CB49EEE7CB4B9F4227DD039B002B0ADA2B
:104CF8000BF1004310EE10AADDE900219B4601F1FB
:104D08000043CDE9002352465B469FA1D1E900014B
:104D1800FBF722FA04460D46DDE900239CA1D1E900
:104D28000001FBF719FA22462B46FBF717FA8246D1
:104D38008B469FED997B8DED007B52465B46504636
:104D48005946FBF7C1FB8046894602460B46FBF7EE
:104D5800BBFB04460D4642464B4650465946FBF7B8
:104D6800B3FB8FA3D3E9002341EC180B2046294657
:104D7800FBF7AAFB8CA3D3E90023FBF7EFF9224644
:104D88002B46FBF7A1FB8AA3D3E90023FBF7E6F93F
:104D980022462B46FBF798FB87A3D3E90023FBF7B2
:104DA800DDF922462B46FBF78FFB85A3D3E90023C9
:104DB800FBF7D4F922462B46FBF786FB82A3D3E9FF
:104DC8000023FBF7CBF942464B46FBF77DFB80A35C
:104DD800D3E9002341EC190B20462946FBF774FB65
:104DE8007DA3D3E90023FBF7B9F922462B46FBF74D
:104DF8006BFB7BA3D3E90023FBF7B0F922462B46D4
:104E0800FBF762FB78A3D3E90023FBF7A7F9224657
:104E18002B46FBF759FB76A3D3E90023FBF79EF952
:104E280022462B46FBF750FB73A3D3E90023FBF77D
:104E380095F902460B4651EC190BFBF78FF953EC29
:104E4800182BFBF741FBDDE90023FBF787F9424606
:104E58004B46FBF739FBDDE90023FBF77FF90446F6
:104E68000D4667A3D3E9002351EC180BFBF72CFB85
:104E780022462B46FBF772F90B46024641EC180B0B
:104E880050465946FBF76AF9624B04460D469F4265
:104E98003EDD3046FBF7AEFA2246804689462B4671
:104EA80020462946FBF710FB06460F4642464B466E
:104EB80020462946FBF752F902460B46304639464A
:104EC800FBF72CFC53EC182BFBF746F902460B4674
:104ED80050465946FBF740F902460B46FBF73EF9A8
:104EE80002460B4640464946FBF736F9039B044603
:104EF8000D464FEAA37A0AF0020ACAF10100FBF74D
:104F080079FA02460B4620462946FBF7DDFADAE62F
:104F1800012E00F0818000260F46894602460B4686
:104F280000203B49B046FBF7F9FB52465B46CDE90A
:104F38000001DDE9004530463946FBF70DF9024628
:104F48000B4651EC180BFBF707F932462B46FBF7DB
:104F5800BBFA424606460F462B4640464946FBF7F3
:104F6800B3FA0022294BFBF7F9F802460B46304604
:104F78003946FBF7F3F8DDE90023FBF7A5FA4246CB
:104F88002B46FBF7EBF89EE6182D4454FB21E93F2E
:104F9800075C143326A6813C0000000000000000D6
:104FA800D47ABF74702AFB3EE9A7F0320FB8123FDB
:104FB80068108D1AF726303F1583E0FEC8DB573F8F
:104FC80093846EE9E326823FFE41B31BBAA1AB3F4F
:104FD800735360DBCB75F3BEA69237A0887E143F6F
:104FE8000165F2F2D844433F280356C9226D6D3F4C
:104FF80037D60684F464963F7AFE10111111C13F2A
:10500800635555555555D53FFFFF2F3E0000F03FDE
:105018000000F0BF2794E53F82468B4655E600BF67
:105028009FED010B704700BF000000000000F87FF3
:1050380070B555EC104BC5F30A5206462B469AB983
:1050480025F00043234336D0394B2946002210EE81
:10505800100AFBF739FA374B04460D469E4210DA20
:105068002BA3D3E900233AE040F2FF718A420CD126
:1050780010EE102A20462946FBF770F804460D4624
:1050880019E0C1F30A520B46363A324440F2FE7137
:105098008A4208DD002D20A1D1E900011CDA20A1F7
:1050A800D1E9000118E0002A08DD23F0FF4323F4CA
:1050B800E00343EA025545EC104B70BD12F1350F81
:1050C80019DA4CF250339E4205F000430ADD12A172
:1050D800D1E90001002BE2D10FA3D3E90023FBF7AC
:1050E800F3F9CBE70AA1D1E90001002BB8D00EA152
:1050F800D1E90001B4E723F0FF433632204623F418
:10510800E00343EA025100220B4BE8E7AFF30080CB
:1051180059F3F8C21F6EA5019C7500883CE4377EE0
:105128009C7500883CE437FE59F3F8C21F6EA581D0
:1051380000005043B03CFFFF0000903C000000001E
:105148002DE9F04F1F460023044688464FF0000A19
:105158004FF0000B2DED028B9DB018939F4B1392CF
:105168001B6818460593FBF7F4FE0546CDF85C80EE
:10517800179B1A782B2A4ED03BD80D2A34D8082AE8
:1051880034D8002A3ED000230A93179E3378302B58
:1051980040F0B080737803F0DF03582B68D10A9B86
:1051A80017A902972046019318AB8D4A009319ABB3
:1051B8000BF0DEFE10F00707054605D0062F2CD1B0
:1051C8000136002317960A93139B002B40F08E8517
:1051D8000A9BEBB152460BF1004343EC102B1DB078
:1051E800BDEC028BBDE8F08F202ACCD10133179398
:1051F800BEE72D2AC7D101220A925A1C17925B7862
:10520800002BC2D1139BCDF85C80002B40F06C853D
:1052180052465B46E1E70022EEE7189A3AB135219B
:105228001AA810F079F9189920460CF077F9013F7F
:10523800042F06D8DFE807F00A0314170A00DDE98F
:105248001AAB2807C0D54BF0004BBDE7DDE91AA320
:10525800199A23F4801302F2334243EA025BF0E71F
:10526800DFF880B1EDE76FF0004B4FF0FF3AE8E769
:10527800179B5A1C17925B78302BF9D0002BA3D0C0
:1052880001234FF0000904930A22179B4F46CDF8DB
:105298001C90089317980678A6F13003D9B209290B
:1052A8002AD92A46059910F03FFAA0B300203246C1
:1052B8003D4603460590652A01D0452A18D11DB9F7
:1052C800049A02439ED00025DDF85C8008F10102B3
:1052D800179298F801202B2A75D02D2A7BD04FF0F1
:1052E800000CA2F13001092940F28280CDF85C80DF
:1052F80000269DE00023C4E7082F00F1010007F114
:105308000107D4BF079902FB09391790DCBF02FBDC
:1053180001330793BEE7179B5A1917925A5D002F5E
:1053280036D03D460590A2F13003092B12D901234E
:10533800C1E7179B01305A1C17925A78302AF8D0C7
:10534800A2F13103082B00F2D68405900020179BA8
:1053580005460893303A00F1010313D0059900EB94
:10536800050E19442B4605910A21734512D12B18B5
:105378000135082B05441CDC07990A2303FB01238C
:1053880007930023179A1846511C17915278CAE7B9
:105398003846D3E7082B04DC079E4E4307960133B3
:1053A800E3E703F1010CBCF1100FD8BF01FB09F9C9
:1053B800F5E7102DDCBF0A2303FB0929E1E70023E9
:1053C800059301237CE74FF0000C08F102021792C5
:1053D80098F8022085E74FF0010CF6E75C740100AD
:1053E800D47301000000F07F179A511C179152786E
:1053F800302AF9D0A2F1310108293FF679AFA2F19C
:10540800300E179A0692179A511C17915278A2F1EA
:105418003006092E37D9069E891B44F61F660829CF
:1054280002DC7645A8BF7646BCF1000F00D0764274
:10543800002D4DD1049901437FF4C6AE002B7FF4B3
:10544800E1AE692A27D024DC492A24D04E2A7FF4E9
:10545800D9AE9F4917A80FF0DAFE00283FF4D2AE64
:10546800179B1B78282B2DD11AAA9A4917A80FF039
:10547800E2FE052826D11B9BDDF868A043F0FF4B10
:105488004BF4E00BA0E60A2101FB0E2EAEF1300E24
:10549800B9E76E2ADBE7904917A80FF0B8FE002895
:1054A8003FF4B0AE179B17A88C49013B17930FF038
:1054B800AEFE10B9179B01331793DFF830B24FF0E7
:1054C800000A81E68648FFF7ABFD5BEC10AB7BE694
:1054D800059B002F08BF2F46102D0798A6EB030346
:1054E800A846A8BF4FF010080693FAF773FF092DD6
:1054F80082468B4613DD7B4B03EBC80353E912232B
:10550800FAF7E2FF82468B464846FAF763FF0246FF
:105518000B4650465946FAF721FE82468B460F2D18
:1055280038DC069B002B3FF44FAE24DD162B0BDC3A
:105538006C49524601EBC3015B46D1E90001FAF719
:10554800C3FF82468B463FE6C5F12503069A934280
:1055580020DBC5F10F05634C52465B4604EBC501E1
:10556800D1E90001FAF7B0FF069B5D1B04EBC50407
:10557800D4E90023E3E7069B16330BDB059B504673
:1055880059469E1B574B03EBC606D6E90023FBF78B
:10559800C5F8D6E7A5EB0808069B9844B8F1000FB4
:1055A80074DD18F00F030AD04E49524601EBC301CF
:1055B8005B46D1E90001FAF787FF82468B4638F04F
:1055C8000F084FD0B8F59A7F22DD00252E460795A3
:1055D80005952223DFF814B14FF0000A2360079BDA
:1055E800002B3FF4F1AD189920460BF097FF059971
:1055F80020460BF093FF314620460BF08FFF0799AA
:1056080020460BF08BFF294620460BF087FFDBE591
:10561800354B4FEA281850465946049300239946BB
:10562800B8F1010F21DC0BB182468B462E4BABF152
:10563800547B524603EBC9095B46D9E90001FAF7E6
:1056480043FF2A4B0A4682460B4029498B42BCD865
:10565800A1F580118B4286BFDFF898B04FF0FF3A72
:1056680002F1547B0023049383E018F0010F05D066
:10567800049BD3E90023FAF727FF0123049A09F1D1
:1056880001094FEA680808320492C9E7EAD0C8F16C
:10569800000818F00F020AD0124B5046594603EB87
:1056A800C203D3E90023FBF739F882468B465FEA49
:1056B8002818D7D0B8F11F0F1EDD00252E460795F4
:1056C800059522234FF0000A4FF0000B236086E770
:1056D8002E880100E8730100268801005688010021
:1056E800B279010080600100586001000000F07F7D
:1056F8000000A07CFFFFEF7F18F0100350465946CA
:10570800DFF8A89318BF6A230493002318F0010F49
:1057180004D0D9E90023FAF7D7FE01235FEA680825
:1057280009F10809F2D10BB182468B46049BC3B13B
:10573800CBF30A525946C2F16B03002B11DD1F2B24
:1057480040F32181342B4FF0000ADBBFC2F14B023A
:105758004FF0FF334FF05C7B03FA02F2D8BF02EA46
:10576800010B0022002350465946FBF715F9002883
:10577800A3D1079B3A460899204600932B460BF085
:1057880037FF079000283FF420AF059B00259E1B9C
:10579800069B002BB4BF334600232E460C93069B72
:1057A80023EAE3731293079B204659680BF076FEB1
:1057B800059000283FF40DAF079B0C301A6903F1E0
:1057C8000C01023292000FF0F2F91AAA19A9204628
:1057D8004BEC10AB0CF0E8F918904BEC18AB002828
:1057E8003FF4F7AE012120460BF04CFF0646002897
:1057F8003FF4EFAE199B0499002BA3EB0108A9BF56
:105808000C9A129A03EB0209129FB8BFD71A1A9A78
:10581800A14B9044B8BFDDF83090C2F1360208F1D0
:10582800FF38984580F2C380A3EB080301211F2BA2
:10583800A2EB030200F3AE8001FA03F30D930023F9
:10584800089309EB0208049B1744C1451F444B46C3
:10585800A8BF4346BB42A8BF3B46002BC2BFA8EB2C
:105868000308FF1AA9EB03090C9B002B17DD31462F
:105878001A4620460BF0C4FF064600283FF4A9AE9E
:105888000146189A20460BF013FF0B9000283FF4AE
:10589800A0AE189920460BF041FE0B9B1893B8F167
:1058A800000F00F38980069B002B08DD129A204622
:1058B80005990BF0A5FF059000283FF48AAE002F4C
:1058C80008DD3A46059920460BF0F4FF05900028BC
:1058D8003FF47FAEB9F1000F08DD31464A46204655
:1058E8000BF0E8FF064600283FF473AE059A204601
:1058F80018990CF04FF8054600283FF46AAEC368C3
:1059080031460B930023C3600FF0B7FD00285DDA22
:105918000B9B53EA0A037FD1CBF31303002B7BD1F4
:105928002BF000431B0D1B05B3F1D66F74D96B69BF
:1059380013B92B69012B6FDD2946012220460BF094
:10594800B9FF314605460FF098FD002864DD04993B
:105958005B46524A00297FD002EA0B01B1F1D66FAB
:105968007ADCB1F15C7F7FF7ACAE4D4B50465946BF
:105978000022FAF7A9FD0B4682468B46034304BF73
:10598800222323602FE64FF0FF3202FA03F303EAE3
:105998000A0AE6E6C8F17F480D9108F57F0808F580
:1059A8007B4808F1E20801FA08F3089349E7002365
:1059B800089301230D9344E74246189920460BF0BB
:1059C80079FF189000287FF46EAF02E65F466FD12A
:1059D8000B9ACBF3130342B3324A934228D1049B68
:1059E8005146EBB12D4B4FF0FF323B40B3F1D46F32
:1059F80019D81B0DC3F16B0302FA03F3994217D1AF
:105A0800294B9F4202D101313FF4E3AD234B4FF0C4
:105A1800000A3B4003F5801B049B002BA5D1E2E55F
:105A28004FF0FF33EAE71346E8E753EA0A038ED05C
:105A3800089BDBB13B42EFD00B9B5046049A59467A
:105A4800C3B10FF061FA02460B4651EC180BFAF796
:105A580085FB82468B46DFE713404FF0FF3AA3F5FC
:105A680080136FEA135B6FEA0B5BD5E70D9B13EAB4
:105A78000A0FE0E70FF048FA02460B4651EC180B04
:105A8800FAF76AFB0022002382468B46FAF784FF66
:105A98000028C1D015E600BF02FCFFFF0000F07F20
:105AA80000005039FFFF0F00FFFFEF7F306001005B
:105AB800314628460FF0FDFC00224FF0804310EEDF
:105AC800100A59EC108B4946FAF77AFF00287AD069
